:020000040800F2
:10000000C0060020B50100081D10000815100008EA
:1000100019100008BD0200083D1000080000000093
:100020000000000000000000000000002510000893
:10003000C10200080000000021100008291000087B
:10004000CF010008CF010008CF010008CF01000850
:10005000CF010008CF010008CF010008CF01000840
:10006000CF010008CF010008CF010008CF01000830
:10007000CF010008CF010008CF010008CF01000820
:10008000CF010008CF010008CF010008CF01000810
:10009000CF010008CF010008CF010008CF01000800
:1000A000CF01000831100008CF010008CF0100087F
:1000B000CF010008CF010008CF010008CF010008E0
:1000C000CF010008CF010008CF010008CF010008D0
:1000D000CF010008CF010008CF010008CF010008C0
:1000E000CF010008CF010008CF01000800F002F89E
:1000F00000F050F814A696E8000CB244B344DA4578
:1001000001D100F047F8BAE80F000FA696E83000DA
:10011000A5EB040504EB0607AAEB0704A7F101070A
:100120004FEA15154FEA3414A4F10104AC4201D38F
:1001300000F030F813F0010F18BFFB1A43F0010371
:1001400000F001F8DBE71847FC0F00001C1000006E
:10015000103A24BF78C878C1FAD8520724BF30C8F3
:1001600030C144BF04680C60704700007047000055
:100170000023002400250026103A28BF78C1FBD8B0
:10018000520728BF30C148BF0B6070471FB51FBD65
:1001900010B510BD00F058F81146FFF7F7FF00F05A
:1001A0004FFF00F076F803B4FFF7F2FF03BC00F056
:1001B0007DF800000948804709480047FEE7FEE750
:1001C000FEE7FEE7FEE7FEE7FEE7FEE7FEE7FEE707
:1001D00004480549054A064B704700002D100008E9
:1001E000ED000008C0000020C0060020C002002072
:1001F000C00200204FF0000200B513469446964618
:10020000203922BFA0E80C50A0E80C50B1F1200129
:10021000BFF4F7AF090728BFA0E80C5048BF0CC0D7
:100220005DF804EB890028BF40F8042B08BF704735
:1002300048BF20F8022B11F0804F18BF00F8012BA7
:100240007047704770477047754600F02BF8AE4610
:1002500005006946534620F00700854618B020B5D2
:10026000FFF7B6FFBDE820404FF000064FF0000753
:100270004FF000084FF0000BAC46ACE8C009ACE80A
:10028000C009ACE8C009ACE8C00921F007018D46FF
:10029000704710B50446AFF300802046BDE810401B
:1002A000FFF781BF00487047100000200149182067
:1002B000ABBEFEE72600020070470000FEE700002C
:1002C00070470000B0B5044600F01EF9054640F244
:1002D0000000C2F200000078611C18BF044400BF97
:1002E00000F012F9401BA042FAD3B0BD2DE9F04F47
:1002F00082B00E68002E00F0FD8041F20042C4F290
:100300000102042340F2004E904208BF03234FF63F
:10031000FF7CC4F2010E009300240123C1F2100CF3
:100320004FF0000A4FF0000944E000BF012704F03D
:100330000C030F229A402BEA020207FA03F34FEA5A
:100340009A051A4346F825204E6840F20C45F20201
:10035000DEF8082054BF22EA080242EA0802C4F28A
:100360000105CEF808202A68B30254BF22EA080229
:1003700042EA08022A60B303DEF8042054BF22EAEE
:10038000080242EA0802F303CEF80420DEF8002057
:100390004FF0010354BF22EA080242EA0802CEF8F5
:1003A00000200E680AF1010A36FA0AF204F1040488
:1003B00000F0A08003FA0AFB16EA0B08F1D04E68A1
:1003C000664511DC122E55D8DFE806F0340A4448A1
:1003D000545454545454545454545454544C50003D
:1003E000D1F80C9046E000BF4FF6FF72C1F2210237
:1003F00096420FDC0022C1F2110296421AD000226E
:10040000C1F21202964215D00022C1F22102964298
:1004100010D02FE00022C1F2220296420AD0002220
:10042000C1F23102964205D00022C1F23202964258
:1004300020D100BF8A684AB1012A14BFC0F814B0A5
:10044000C0F810B04FF0080914E000BF4FF00409E5
:1004500010E000BFCA6802F108090BE04FF0000984
:1004600008E000BFCA6802F1040903E0CA6802F1AB
:100470000C0900BF22460646B8F5807F24BF203A0B
:10048000043637680F25954027EA050509FA02F278
:100490002A433260CA79D2067FF583AF41F218034E
:1004A000C4F202031A68AEF57E7642F001021A60C9
:1004B0001A6802F001020192019A2AF0030256F82A
:1004C00002B040F60002C4F20102904210D040F6A1
:1004D0000042C4F2010290423FF428AF41F2000210
:1004E000C4F20102009F904208BF02271FE700BF2D
:1004F00000271CE702B0BDE8F08F0000002A08BF0B
:10050000090401617047000040F2B800C2F2000027
:100510000068704740F2000040F2B801C2F20000EB
:10052000C2F2000100780A681044086070470000B9
:1005300080B542F20000C4F20200016841F01001EF
:100540000160032000F0C0F80F2000F005F800F073
:100550005BF8002080BD0000B0B586B041F2180104
:10056000C4F202010A68044642F400620A600968A3
:1005700001A801F4006101910199694600F096F922
:1005800000F0B6F94DF68361C4F21B31A0FB010106
:100590004FF0FF3000EB914140F2700042F6004214
:1005A000C2F20000C4F2010240F2E7330025C0E9C4
:1005B0000021C0E902530561856100F0B1FB0546E9
:1005C00010B1284606B0B0BD40F27000C2F2000083
:1005D00000F01EFC05460028F3D1192000F036F883
:1005E0000F2C0DD8192021460022002500F040F8DC
:1005F00040F20400C2F200000460284606B0B0BD1C
:100600000125284606B0B0BD82B041F21800C4F200
:1006100002000168022241F001010160016801F05D
:10062000010101910199416841F0805141604068A8
:1006300000F08050009000980420C4F2010001688E
:1006400062F31A61016002B070470000002848BFE1
:10065000704700F01F01012202FA01F11C2202EA98
:10066000D0004EF20012CEF200028150704700001E
:1006700010B54EF60C5CCEF2000CDCF80030C3F383
:10068000022E8EF00704042C28BF0424BEF10303BD
:100690004FF0FF3E0EFA04F438BF0023A143994007
:1006A0000EFA03F39A43114300F00F0200F1604386
:1006B0000901043A03F564436244002848BF02F18B
:1006C0000C03197010BD00004EF60C51CEF2000163
:1006D0000A684FF6FF031A4060F30A2242F0806076
:1006E00040F0FD7008607047002804BF012070478B
:1006F0002DE9F04381B042F20008C4F2020804463A
:10070000D8F800000D4600F0070088420CD2D8F857
:10071000000020F007002843C8F80000D8F80000C7
:1007200000F00700A8426CD1206841F2040981075B
:10073000C4F2020917D5410705D5D9F8001041F4D4
:10074000E061C9F80010010705D5D9F8001041F49F
:100750006051C9F80010D9F80010A26821F0F0012A
:100760001143C9F80010C00742D1D8F8000000F0CA
:100770000700A8420CD9D8F8000020F00700284351
:10078000C8F80000D8F8000000F00700A84238D1EF
:100790002068410707D5D9F80010E26821F4E0612C
:1007A0001143C9F80010000708D5D9F800002169E5
:1007B00020F4605040EAC100C9F80000D9F80020D8
:1007C00002F00C00082841F20020C0F27A0051D15A
:1007D00041F23413C2F38341C0F60003595CD203E3
:1007E0003CD440F60010C0F23D00484342E000BF58
:1007F000606802280AD001282AD159F8041C89030C
:1008000008D4012001B0BDE8F08300BF59F8041CF2
:100810008901F6D5D9F8001021F003010843C9F881
:100820000000FFF771FE064641F28837D9F8000054
:10083000616800F00C00B0EB810F96D0FFF764FE0A
:10084000801BB842F2D9032001B0BDE8F08300BF9D
:1008500059F8041C8907D4D5DCE700BFD9F800207B
:1008600041F23213C2F34042C0F600039A5C48439F
:10087000B0FBF2F0D9F8001041F21A12C1F30311E3
:10088000C0F60002515C40F2080220FA01F140F289
:100890000400C2F200000068C2F200021160FFF71B
:1008A0005BFE002001B0BDE8F08300000F22026073
:1008B00041F20402C4F20202136803F0030343602E
:1008C000136803F0F0038360136803F4E063C3600C
:1008D00012684FF4E06303EAD202026142F20000C0
:1008E000C4F20200006800F00700086070470000D2
:1008F00040F2080041F20401C2F20000C4F2020119
:100900000068096841F22A12C1F3C221C0F6000250
:10091000515CC84070470000002804BF01207047A8
:100920002DE9F04182B00446007841F20006C0078C
:10093000C4F202060CD0706800F00C00042840F0ED
:1009400081803068800303D56068002800F04E8104
:10095000207880071BD5706810F00C0F09D07068E4
:1009600000F00C00082840F08B807068C00300F194
:1009700087803068800703D52069012840F03681E0
:100980003068616920F0F80040EAC10030602078EA
:10099000000713D4207840072CD4E569002D00F01F
:1009A0002081706800F00C00082840F0AF80012D15
:1009B00040F00C81012002B0BDE8F081A069002860
:1009C00000F08C800020C4F242200121C0F8801485
:1009D000FFF79AFD054600BF706A800700F1BA80F4
:1009E000FFF792FD401B0228F6D9032002B0BDE8B4
:1009F000F08100BFF0695FEAC00808D4F06940F0F8
:100A00008050F061F06900F080500090009847F24B
:100A10000007C4F200073868C0054DD4386840F4B8
:100A200080703860FFF770FD054600BF3868C0056C
:100A300042D4FFF769FD401B6428F7D9032002B0B8
:100A4000BDE8F081706800F00C00082803D17068E0
:100A5000C0033FF576AF6068002800F00981B0F56B
:100A6000A02F00F01D81B0F5803F00F01D8130689F
:100A700020F480303060306820F4802017E100BF1F
:100A80002069002840F20000C4F2422000F08C806F
:100A900001210160FFF738FD054600BF306880077F
:100AA0003FF56EAFFFF730FD401B0228F6D903205B
:100AB00002B0BDE8F08100BFE068002800F09A8035
:100AC000052800F0B180012800F0B280306A20F0E3
:100AD00001003062306A20F00400ACE00020C4F273
:100AE00042200021C0F88014FFF70EFD054600BF2C
:100AF000706A80077FF54EAFFFF706FD401B0228A6
:100B0000F6D9032002B0BDE8F08100BF0027C4F28F
:100B1000422700203866FFF7F7FC022D05460DD16D
:100B20003068800140F1D680FFF7EEFC401B0228C0
:100B30004FF00300F4D902B0BDE8F08130688001C5
:100B40004FD5FFF7E1FC401B02284FF00300F5D919
:100B5000F1E700BF40F20800C2F20000006844F66E
:100B6000D351C1F26201A0FB0101480A019000BF0C
:100B700000BF0198411E002801913FF40BAF00BF58
:100B80000198411E002801913FF404AF00BF019875
:100B9000411E002801913FF4FDAE00BF0198411EA7
:100BA00000280191E4D1F5E600210160FFF7ACFCDB
:100BB000054600BF306880077FF5E9AEFFF7A4FC6B
:100BC000401B02284FF00300F4D9B4E77068216A93
:100BD00000F480328A4209D1616A00F470108842C0
:100BE00004D1002002B0BDE8F08100BF012002B0B6
:100BF000BDE8F081306A20F001003062306A20F0F8
:100C000004003062FFF780FC054641F2883700BFE0
:100C1000306A800722D5FFF777FC401BB8424FF0BF
:100C20000300F5D987E700BF306A40F00400306266
:100C3000306A40F001003062FFF766FC054641F281
:100C4000883700BF306A800708D4FFF75DFC401B7F
:100C5000B842F7D9032002B0BDE8F081B8F1000F27
:100C60003FF59BAEF06920F08050F06195E600BF43
:100C7000306820F480303060306820F480203060AC
:100C8000FFF742FC054600BF306880037FF560AE89
:100C9000FFF73AFC401B64284FF00300F4D94AE701
:100CA000306840F480203060306840F4803030603C
:100CB000FFF72AFC054600BF306880033FF548AEC9
:100CC000FFF722FC401B6428F6D9032002B0BDE8E0
:100CD000F08100BF206AB0F5803F05D17168A2683D
:100CE00021F40031114371607168626A21F474115A
:100CF00011430843706001203866FFF705FC044685
:100D0000306880013FF56DAFFFF7FEFB001B022846
:100D10004FF00300F4D90EE7704700007047000061
:100D2000002804BF0120704710B5044690F83D002C
:100D300028B9002084F83C00204600F067F8022023
:100D400084F83D00206840F2FF730268C4F200039B
:100D500042F6004C9842C4F2010C15DCB0F1804F11
:100D60001AD040F20041C4F20001884214D09842E7
:100D700018DCB0F1804F1DD040F20041C4F20001F8
:100D8000884217D01AE000BF604505D040F6000148
:100D9000C4F200018842EAD1A16822F070020A433D
:100DA0009842E6DD604505D040F60001C4F200013E
:100DB000884203D1216922F440720A43A36922F0D8
:100DC0008001D4F804E0E268194360450160C26222
:100DD000C0F828E002D16169CCF8301001214161EE
:100DE000002084F8461084F83E1084F83F1084F800
:100DF000401084F8411084F8421084F8431084F8BD
:100E0000441084F8451084F83D1010BD7047000070
:100E100090F83D1001291CBF01207047022180F885
:100E20003D10006840F2FF72C168C4F200029042B7
:100E300041F00101C16009DCB0F1804F12D040F2F5
:100E40000041C4F2000188420CD012E042F6004199
:100E5000C4F20101884205D040F60001C4F200014D
:100E6000884206D1816801F00701062904BF0020ED
:100E70007047016841F001010160002070470000E7
:100E80007047000010B5016804460869800744BF38
:100E9000C8685FEA807039D40869400744BFC868F1
:100EA0005FEA40703ED40869000744BFC8685FEA43
:100EB000007045D40869C00644BFC8685FEAC060D6
:100EC0004AD40869C0071CBFC8685FEAC07051D126
:100ED0000869000644BFC8685FEA006052D4086928
:100EE000400644BFC8685FEA406053D40869800682
:100EF00046BFC8685FEA806010BD6FF020022046E0
:100F00000A61BDE81040FFF709BF00BF6FF00200A3
:100F10000861012020778869800743D02046FFF7C9
:100F2000AFFF45E06FF00400086102202077886978
:100F300010F4407F40D02046FFF7A2FF42E000BF00
:100F40006FF00800086104202077C86980073DD051
:100F50002046FFF795FF3FE06FF010000861082082
:100F60002077C86910F4407F3AD02046FFF788FF09
:100F70003CE000BF6FF001000861204600F03EF841
:100F80002168A5E76FF0800008612046FFF7C4FEE6
:100F90002168A4E76FF040000861204600F038F8AF
:100FA0002168A3E7204600F025F8204600F024F849
:100FB0002168002020776FE7204600F01BF82046CC
:100FC00000F01AF82168002020776CE7204600F036
:100FD00011F8204600F010F821680020207769E71A
:100FE000204600F007F8204600F006F821680020AF
:100FF000207766E77047000070470000006842F6FF
:101000000041C4F20101884218BF7047FFF782BA5D
:1010100070470000FEE70000FEE70000FEE700006A
:1010200070470000704700007047000070470000E4
:1010300040F27000C2F20000FFF724BFFEE700009C
:1010400090B0FFF775FA06AC201D2421FFF7D2F807
:101050000220069001200A9010200B9000252046C7
:101060000D95FFF759FC28B1EFF3108072B600BF61
:10107000FEE700BF0F20CDE9010501A80021CDE961
:1010800003550595FFF730FB20B1EFF3108072B6E2
:10109000FEE700BF41F21800C4F20200016841F20D
:1010A000000441F0100101600168C4F2010401F084
:1010B0001001069106990168002241F004010160C7
:1010C00000684FF4005100F0040006900698204696
:1010D0004FF400550026FFF711FA0120CDE907066D
:1010E0000220099006A920460695FFF7FFF800BFE9
:1010F00020464FF400510122FFF700FA4FF47A70B6
:10110000FFF7E0F820464FF400510022FFF7F6F910
:101110004FF47A70FFF7D6F8EAE70000000000000D
:101120000000010203040607080900000000010294
:101130000304010202030405060708090A0B0C0D4B
:101140000E0F1010681100080000002010000000B1
:10115000500100087811000810000020B0060000BF
:1011600070010008000000000100000010000000F5
:081170000024F400000000005F
:04000005080000ED02
:00000001FF
